{
  "_format": "hh-sol-artifact-1",
  "contractName": "DiceIt",
  "sourceName": "contracts/DiceIt.sol",
  "abi": [
    {
      "inputs": [
        {
          "internalType": "uint256",
          "name": "gameId",
          "type": "uint256"
        }
      ],
      "name": "challengerBet",
      "outputs": [],
      "stateMutability": "payable",
      "type": "function"
    },
    {
      "inputs": [
        {
          "internalType": "uint256",
          "name": "gameId",
          "type": "uint256"
        }
      ],
      "name": "claimReward",
      "outputs": [],
      "stateMutability": "payable",
      "type": "function"
    },
    {
      "inputs": [
        {
          "internalType": "address",
          "name": "_challenger",
          "type": "address"
        },
        {
          "internalType": "uint256",
          "name": "_maxScore",
          "type": "uint256"
        },
        {
          "internalType": "uint256",
          "name": "_maxTurn",
          "type": "uint256"
        }
      ],
      "name": "createGame",
      "outputs": [
        {
          "internalType": "uint256",
          "name": "index",
          "type": "uint256"
        }
      ],
      "stateMutability": "payable",
      "type": "function"
    },
    {
      "inputs": [],
      "name": "fetchMyGames",
      "outputs": [
        {
          "components": [
            {
              "internalType": "uint256",
              "name": "id",
              "type": "uint256"
            },
            {
              "internalType": "address",
              "name": "owner",
              "type": "address"
            },
            {
              "internalType": "address",
              "name": "challenger",
              "type": "address"
            },
            {
              "internalType": "enum DiceIt.Stage",
              "name": "stage",
              "type": "uint8"
            },
            {
              "internalType": "uint256",
              "name": "maxScore",
              "type": "uint256"
            },
            {
              "internalType": "uint256",
              "name": "maxTurn",
              "type": "uint256"
            },
            {
              "internalType": "enum DiceIt.CurrentPlayer",
              "name": "currentPlayer",
              "type": "uint8"
            },
            {
              "components": [
                {
                  "internalType": "uint256",
                  "name": "turn",
                  "type": "uint256"
                },
                {
                  "internalType": "uint256",
                  "name": "score",
                  "type": "uint256"
                },
                {
                  "internalType": "bool",
                  "name": "stop",
                  "type": "bool"
                }
              ],
              "internalType": "struct DiceIt.Player",
              "name": "ownerPlayer",
              "type": "tuple"
            },
            {
              "components": [
                {
                  "internalType": "uint256",
                  "name": "turn",
                  "type": "uint256"
                },
                {
                  "internalType": "uint256",
                  "name": "score",
                  "type": "uint256"
                },
                {
                  "internalType": "bool",
                  "name": "stop",
                  "type": "bool"
                }
              ],
              "internalType": "struct DiceIt.Player",
              "name": "challengerPlayer",
              "type": "tuple"
            },
            {
              "internalType": "address",
              "name": "winner",
              "type": "address"
            },
            {
              "internalType": "uint256",
              "name": "bet",
              "type": "uint256"
            }
          ],
          "internalType": "struct DiceIt.Game[]",
          "name": "_myGames",
          "type": "tuple[]"
        }
      ],
      "stateMutability": "view",
      "type": "function"
    },
    {
      "inputs": [],
      "name": "fetchOwnedGames",
      "outputs": [
        {
          "components": [
            {
              "internalType": "uint256",
              "name": "id",
              "type": "uint256"
            },
            {
              "internalType": "address",
              "name": "owner",
              "type": "address"
            },
            {
              "internalType": "address",
              "name": "challenger",
              "type": "address"
            },
            {
              "internalType": "enum DiceIt.Stage",
              "name": "stage",
              "type": "uint8"
            },
            {
              "internalType": "uint256",
              "name": "maxScore",
              "type": "uint256"
            },
            {
              "internalType": "uint256",
              "name": "maxTurn",
              "type": "uint256"
            },
            {
              "internalType": "enum DiceIt.CurrentPlayer",
              "name": "currentPlayer",
              "type": "uint8"
            },
            {
              "components": [
                {
                  "internalType": "uint256",
                  "name": "turn",
                  "type": "uint256"
                },
                {
                  "internalType": "uint256",
                  "name": "score",
                  "type": "uint256"
                },
                {
                  "internalType": "bool",
                  "name": "stop",
                  "type": "bool"
                }
              ],
              "internalType": "struct DiceIt.Player",
              "name": "ownerPlayer",
              "type": "tuple"
            },
            {
              "components": [
                {
                  "internalType": "uint256",
                  "name": "turn",
                  "type": "uint256"
                },
                {
                  "internalType": "uint256",
                  "name": "score",
                  "type": "uint256"
                },
                {
                  "internalType": "bool",
                  "name": "stop",
                  "type": "bool"
                }
              ],
              "internalType": "struct DiceIt.Player",
              "name": "challengerPlayer",
              "type": "tuple"
            },
            {
              "internalType": "address",
              "name": "winner",
              "type": "address"
            },
            {
              "internalType": "uint256",
              "name": "bet",
              "type": "uint256"
            }
          ],
          "internalType": "struct DiceIt.Game[]",
          "name": "_ownGames",
          "type": "tuple[]"
        }
      ],
      "stateMutability": "view",
      "type": "function"
    },
    {
      "inputs": [],
      "name": "fetchParticipatingGames",
      "outputs": [
        {
          "components": [
            {
              "internalType": "uint256",
              "name": "id",
              "type": "uint256"
            },
            {
              "internalType": "address",
              "name": "owner",
              "type": "address"
            },
            {
              "internalType": "address",
              "name": "challenger",
              "type": "address"
            },
            {
              "internalType": "enum DiceIt.Stage",
              "name": "stage",
              "type": "uint8"
            },
            {
              "internalType": "uint256",
              "name": "maxScore",
              "type": "uint256"
            },
            {
              "internalType": "uint256",
              "name": "maxTurn",
              "type": "uint256"
            },
            {
              "internalType": "enum DiceIt.CurrentPlayer",
              "name": "currentPlayer",
              "type": "uint8"
            },
            {
              "components": [
                {
                  "internalType": "uint256",
                  "name": "turn",
                  "type": "uint256"
                },
                {
                  "internalType": "uint256",
                  "name": "score",
                  "type": "uint256"
                },
                {
                  "internalType": "bool",
                  "name": "stop",
                  "type": "bool"
                }
              ],
              "internalType": "struct DiceIt.Player",
              "name": "ownerPlayer",
              "type": "tuple"
            },
            {
              "components": [
                {
                  "internalType": "uint256",
                  "name": "turn",
                  "type": "uint256"
                },
                {
                  "internalType": "uint256",
                  "name": "score",
                  "type": "uint256"
                },
                {
                  "internalType": "bool",
                  "name": "stop",
                  "type": "bool"
                }
              ],
              "internalType": "struct DiceIt.Player",
              "name": "challengerPlayer",
              "type": "tuple"
            },
            {
              "internalType": "address",
              "name": "winner",
              "type": "address"
            },
            {
              "internalType": "uint256",
              "name": "bet",
              "type": "uint256"
            }
          ],
          "internalType": "struct DiceIt.Game[]",
          "name": "_participatingGames",
          "type": "tuple[]"
        }
      ],
      "stateMutability": "view",
      "type": "function"
    },
    {
      "inputs": [
        {
          "internalType": "uint256",
          "name": "",
          "type": "uint256"
        }
      ],
      "name": "games",
      "outputs": [
        {
          "internalType": "uint256",
          "name": "id",
          "type": "uint256"
        },
        {
          "internalType": "address",
          "name": "owner",
          "type": "address"
        },
        {
          "internalType": "address",
          "name": "challenger",
          "type": "address"
        },
        {
          "internalType": "enum DiceIt.Stage",
          "name": "stage",
          "type": "uint8"
        },
        {
          "internalType": "uint256",
          "name": "maxScore",
          "type": "uint256"
        },
        {
          "internalType": "uint256",
          "name": "maxTurn",
          "type": "uint256"
        },
        {
          "internalType": "enum DiceIt.CurrentPlayer",
          "name": "currentPlayer",
          "type": "uint8"
        },
        {
          "components": [
            {
              "internalType": "uint256",
              "name": "turn",
              "type": "uint256"
            },
            {
              "internalType": "uint256",
              "name": "score",
              "type": "uint256"
            },
            {
              "internalType": "bool",
              "name": "stop",
              "type": "bool"
            }
          ],
          "internalType": "struct DiceIt.Player",
          "name": "ownerPlayer",
          "type": "tuple"
        },
        {
          "components": [
            {
              "internalType": "uint256",
              "name": "turn",
              "type": "uint256"
            },
            {
              "internalType": "uint256",
              "name": "score",
              "type": "uint256"
            },
            {
              "internalType": "bool",
              "name": "stop",
              "type": "bool"
            }
          ],
          "internalType": "struct DiceIt.Player",
          "name": "challengerPlayer",
          "type": "tuple"
        },
        {
          "internalType": "address",
          "name": "winner",
          "type": "address"
        },
        {
          "internalType": "uint256",
          "name": "bet",
          "type": "uint256"
        }
      ],
      "stateMutability": "view",
      "type": "function"
    },
    {
      "inputs": [
        {
          "internalType": "uint256",
          "name": "gameId",
          "type": "uint256"
        },
        {
          "internalType": "bool",
          "name": "draw",
          "type": "bool"
        }
      ],
      "name": "playTurn",
      "outputs": [],
      "stateMutability": "payable",
      "type": "function"
    },
    {
      "inputs": [
        {
          "internalType": "uint256",
          "name": "gameId",
          "type": "uint256"
        }
      ],
      "name": "revealWinner",
      "outputs": [
        {
          "internalType": "address",
          "name": "winner",
          "type": "address"
        }
      ],
      "stateMutability": "view",
      "type": "function"
    }
  ],
  "bytecode": "0x60806040526000805534801561001457600080fd5b50613773806100246000396000f3fe6080604052600436106100865760003560e01c806387fb99f61161005957806387fb99f6146101495780638ccb59e814610165578063a40bf061146101a2578063ae169a50146101cd578063c683d21d146101e957610086565b8063117a5b901461008b5780632d76375d146100d25780633b17469e146100ee5780634bd2f9af1461011e575b600080fd5b34801561009757600080fd5b506100b260048036038101906100ad9190612ff1565b610214565b6040516100c99b9a99989796959493929190613365565b60405180910390f35b6100ec60048036038101906100e7919061301a565b61035a565b005b61010860048036038101906101039190612fa2565b610ddb565b604051610115919061334a565b60405180910390f35b34801561012a57600080fd5b50610133611199565b6040516101409190613328565b60405180910390f35b610163600480360381019061015e9190612ff1565b61168b565b005b34801561017157600080fd5b5061018c60048036038101906101879190612ff1565b6117ad565b604051610199919061330d565b60405180910390f35b3480156101ae57600080fd5b506101b7611c1a565b6040516101c49190613328565b60405180910390f35b6101e760048036038101906101e29190612ff1565b6121e4565b005b3480156101f557600080fd5b506101fe6128e8565b60405161020b9190613328565b60405180910390f35b60016020528060005260406000206000915090508060000154908060010160009054906101000a900473ffffffffffffffffffffffffffffffffffffffff16908060020160009054906101000a900473ffffffffffffffffffffffffffffffffffffffff16908060020160149054906101000a900460ff16908060030154908060040154908060050160009054906101000a900460ff16908060060160405180606001604052908160008201548152602001600182015481526020016002820160009054906101000a900460ff161515151581525050908060090160405180606001604052908160008201548152602001600182015481526020016002820160009054906101000a900460ff1615151515815250509080600c0160009054906101000a900473ffffffffffffffffffffffffffffffffffffffff169080600d015490508b565b816001806002811115610396577f4e487b7100000000000000000000000000000000000000000000000000000000600052602160045260246000fd5b6001600084815260200190815260200160002060020160149054906101000a900460ff1660028111156103f2577f4e487b7100000000000000000000000000000000000000000000000000000000600052602160045260246000fd5b146103fc57600080fd5b833360006001600084815260200190815260200160002060405180610160016040529081600082015481526020016001820160009054906101000a900473ffffffffffffffffffffffffffffffffffffffff1673ffffffffffffffffffffffffffffffffffffffff1673ffffffffffffffffffffffffffffffffffffffff1681526020016002820160009054906101000a900473ffffffffffffffffffffffffffffffffffffffff1673ffffffffffffffffffffffffffffffffffffffff1673ffffffffffffffffffffffffffffffffffffffff1681526020016002820160149054906101000a900460ff166002811115610520577f4e487b7100000000000000000000000000000000000000000000000000000000600052602160045260246000fd5b6002811115610558577f4e487b7100000000000000000000000000000000000000000000000000000000600052602160045260246000fd5b815260200160038201548152602001600482015481526020016005820160009054906101000a900460ff1660018111156105bb577f4e487b7100000000000000000000000000000000000000000000000000000000600052602160045260246000fd5b60018111156105f3577f4e487b7100000000000000000000000000000000000000000000000000000000600052602160045260246000fd5b81526020016006820160405180606001604052908160008201548152602001600182015481526020016002820160009054906101000a900460ff16151515158152505081526020016009820160405180606001604052908160008201548152602001600182015481526020016002820160009054906101000a900460ff1615151515815250508152602001600c820160009054906101000a900473ffffffffffffffffffffffffffffffffffffffff1673ffffffffffffffffffffffffffffffffffffffff1673ffffffffffffffffffffffffffffffffffffffff168152602001600d8201548152505090506000816020015173ffffffffffffffffffffffffffffffffffffffff168373ffffffffffffffffffffffffffffffffffffffff1614156107b1578160c001516001811115610756577f4e487b7100000000000000000000000000000000000000000000000000000000600052602160045260246000fd5b60006001811115610790577f4e487b7100000000000000000000000000000000000000000000000000000000600052602160045260246000fd5b1480156107a357508160e0015160400151155b6107ac57600080fd5b610887565b816040015173ffffffffffffffffffffffffffffffffffffffff168373ffffffffffffffffffffffffffffffffffffffff161415610881578160c001516001811115610826577f4e487b7100000000000000000000000000000000000000000000000000000000600052602160045260246000fd5b60018081111561085f577f4e487b7100000000000000000000000000000000000000000000000000000000600052602160045260246000fd5b148015610873575081610100015160400151155b61087c57600080fd5b610886565b600080fd5b5b6000610891612dda565b90506000600160008b815260200190815260200160002090508060010160009054906101000a900473ffffffffffffffffffffffffffffffffffffffff1673ffffffffffffffffffffffffffffffffffffffff163373ffffffffffffffffffffffffffffffffffffffff161415610a09578815610927578181600601600101600082825461091f9190613449565b925050819055505b80600601600001600081548092919061093f906135bf565b919050555088158061095b575080600301548160060160010154115b8061097157508060040154816006016000015410155b156109975760018160060160020160006101000a81548160ff0219169083151502179055505b8060090160020160009054906101000a900460ff16610a045760018160050160006101000a81548160ff021916908360018111156109fe577f4e487b7100000000000000000000000000000000000000000000000000000000600052602160045260246000fd5b02179055505b610b65565b8060020160009054906101000a900473ffffffffffffffffffffffffffffffffffffffff1673ffffffffffffffffffffffffffffffffffffffff163373ffffffffffffffffffffffffffffffffffffffff161415610b64578815610a865781816009016001016000828254610a7e9190613449565b925050819055505b806009016000016000815480929190610a9e906135bf565b9190505550881580610aba575080600301548160090160010154115b80610ad057508060040154816009016000015410155b15610af65760018160090160020160006101000a81548160ff0219169083151502179055505b8060060160020160009054906101000a900460ff16610b635760008160050160006101000a81548160ff02191690836001811115610b5d577f4e487b7100000000000000000000000000000000000000000000000000000000600052602160045260246000fd5b02179055505b5b5b8060060160020160009054906101000a900460ff168015610b9757508060090160020160009054906101000a900460ff165b15610dcf5760028160020160146101000a81548160ff02191690836002811115610bea577f4e487b7100000000000000000000000000000000000000000000000000000000600052602160045260246000fd5b0217905550610bf88a6117ad565b81600c0160006101000a81548173ffffffffffffffffffffffffffffffffffffffff021916908373ffffffffffffffffffffffffffffffffffffffff160217905550600073ffffffffffffffffffffffffffffffffffffffff1681600c0160009054906101000a900473ffffffffffffffffffffffffffffffffffffffff1673ffffffffffffffffffffffffffffffffffffffff161415610d76578060010160009054906101000a900473ffffffffffffffffffffffffffffffffffffffff1673ffffffffffffffffffffffffffffffffffffffff166108fc82600d01549081150290604051600060405180830381858888f19350505050158015610d01573d6000803e3d6000fd5b508060020160009054906101000a900473ffffffffffffffffffffffffffffffffffffffff1673ffffffffffffffffffffffffffffffffffffffff166108fc82600d01549081150290604051600060405180830381858888f19350505050158015610d70573d6000803e3d6000fd5b50610dce565b3373ffffffffffffffffffffffffffffffffffffffff166108fc600283600d0154610da1919061349f565b9081150290604051600060405180830381858888f19350505050158015610dcc573d6000803e3d6000fd5b505b5b50505050505050505050565b6000803411610de957600080fd5b60405180610160016040528060005481526020013373ffffffffffffffffffffffffffffffffffffffff1681526020018573ffffffffffffffffffffffffffffffffffffffff16815260200160006002811115610e6f577f4e487b7100000000000000000000000000000000000000000000000000000000600052602160045260246000fd5b8152602001848152602001838152602001600180811115610eb9577f4e487b7100000000000000000000000000000000000000000000000000000000600052602160045260246000fd5b81526020016040518060600160405280600081526020016000815260200160001515815250815260200160405180606001604052806000815260200160008152602001600015158152508152602001600073ffffffffffffffffffffffffffffffffffffffff1681526020013481525060016000805481526020019081526020016000206000820151816000015560208201518160010160006101000a81548173ffffffffffffffffffffffffffffffffffffffff021916908373ffffffffffffffffffffffffffffffffffffffff16021790555060408201518160020160006101000a81548173ffffffffffffffffffffffffffffffffffffffff021916908373ffffffffffffffffffffffffffffffffffffffff16021790555060608201518160020160146101000a81548160ff02191690836002811115611026577f4e487b7100000000000000000000000000000000000000000000000000000000600052602160045260246000fd5b02179055506080820151816003015560a0820151816004015560c08201518160050160006101000a81548160ff02191690836001811115611090577f4e487b7100000000000000000000000000000000000000000000000000000000600052602160045260246000fd5b021790555060e082015181600601600082015181600001556020820151816001015560408201518160020160006101000a81548160ff021916908315150217905550505061010082015181600901600082015181600001556020820151816001015560408201518160020160006101000a81548160ff021916908315150217905550505061012082015181600c0160006101000a81548173ffffffffffffffffffffffffffffffffffffffff021916908373ffffffffffffffffffffffffffffffffffffffff16021790555061014082015181600d015590505060008081548092919061117c906135bf565b9190505550600160005461119091906134f9565b90509392505050565b606060008054905060008060005b8381101561123c573373ffffffffffffffffffffffffffffffffffffffff166001600083815260200190815260200160002060010160009054906101000a900473ffffffffffffffffffffffffffffffffffffffff1673ffffffffffffffffffffffffffffffffffffffff161415611229576001836112269190613449565b92505b8080611234906135bf565b9150506111a7565b5060008267ffffffffffffffff81111561127f577f4e487b7100000000000000000000000000000000000000000000000000000000600052604160045260246000fd5b6040519080825280602002602001820160405280156112b857816020015b6112a5612e28565b81526020019060019003908161129d5790505b50905060005b84811015611680573373ffffffffffffffffffffffffffffffffffffffff166001600083815260200190815260200160002060010160009054906101000a900473ffffffffffffffffffffffffffffffffffffffff1673ffffffffffffffffffffffffffffffffffffffff16141561166d57600081905060006001600083815260200190815260200160002090508060405180610160016040529081600082015481526020016001820160009054906101000a900473ffffffffffffffffffffffffffffffffffffffff1673ffffffffffffffffffffffffffffffffffffffff1673ffffffffffffffffffffffffffffffffffffffff1681526020016002820160009054906101000a900473ffffffffffffffffffffffffffffffffffffffff1673ffffffffffffffffffffffffffffffffffffffff1673ffffffffffffffffffffffffffffffffffffffff1681526020016002820160149054906101000a900460ff16600281111561145a577f4e487b7100000000000000000000000000000000000000000000000000000000600052602160045260246000fd5b6002811115611492577f4e487b7100000000000000000000000000000000000000000000000000000000600052602160045260246000fd5b815260200160038201548152602001600482015481526020016005820160009054906101000a900460ff1660018111156114f5577f4e487b7100000000000000000000000000000000000000000000000000000000600052602160045260246000fd5b600181111561152d577f4e487b7100000000000000000000000000000000000000000000000000000000600052602160045260246000fd5b81526020016006820160405180606001604052908160008201548152602001600182015481526020016002820160009054906101000a900460ff16151515158152505081526020016009820160405180606001604052908160008201548152602001600182015481526020016002820160009054906101000a900460ff1615151515815250508152602001600c820160009054906101000a900473ffffffffffffffffffffffffffffffffffffffff1673ffffffffffffffffffffffffffffffffffffffff1673ffffffffffffffffffffffffffffffffffffffff168152602001600d82015481525050848681518110611650577f4e487b7100000000000000000000000000000000000000000000000000000000600052603260045260246000fd5b60200260200101819052506001856116689190613449565b945050505b8080611678906135bf565b9150506112be565b508094505050505090565b8060008060028111156116c7577f4e487b7100000000000000000000000000000000000000000000000000000000600052602160045260246000fd5b6001600084815260200190815260200160002060020160149054906101000a900460ff166002811115611723577f4e487b7100000000000000000000000000000000000000000000000000000000600052602160045260246000fd5b1461172d57600080fd5b600060016000858152602001908152602001600020905080600d0154341461175457600080fd5b60018160020160146101000a81548160ff021916908360028111156117a2577f4e487b7100000000000000000000000000000000000000000000000000000000600052602160045260246000fd5b021790555050505050565b60008160028060028111156117eb577f4e487b7100000000000000000000000000000000000000000000000000000000600052602160045260246000fd5b6001600084815260200190815260200160002060020160149054906101000a900460ff166002811115611847577f4e487b7100000000000000000000000000000000000000000000000000000000600052602160045260246000fd5b1461185157600080fd5b60006001600086815260200190815260200160002060405180610160016040529081600082015481526020016001820160009054906101000a900473ffffffffffffffffffffffffffffffffffffffff1673ffffffffffffffffffffffffffffffffffffffff1673ffffffffffffffffffffffffffffffffffffffff1681526020016002820160009054906101000a900473ffffffffffffffffffffffffffffffffffffffff1673ffffffffffffffffffffffffffffffffffffffff1673ffffffffffffffffffffffffffffffffffffffff1681526020016002820160149054906101000a900460ff166002811115611973577f4e487b7100000000000000000000000000000000000000000000000000000000600052602160045260246000fd5b60028111156119ab577f4e487b7100000000000000000000000000000000000000000000000000000000600052602160045260246000fd5b815260200160038201548152602001600482015481526020016005820160009054906101000a900460ff166001811115611a0e577f4e487b7100000000000000000000000000000000000000000000000000000000600052602160045260246000fd5b6001811115611a46577f4e487b7100000000000000000000000000000000000000000000000000000000600052602160045260246000fd5b81526020016006820160405180606001604052908160008201548152602001600182015481526020016002820160009054906101000a900460ff16151515158152505081526020016009820160405180606001604052908160008201548152602001600182015481526020016002820160009054906101000a900460ff1615151515815250508152602001600c820160009054906101000a900473ffffffffffffffffffffffffffffffffffffffff1673ffffffffffffffffffffffffffffffffffffffff1673ffffffffffffffffffffffffffffffffffffffff168152602001600d82015481525050905080608001518160e001516020015111158015611b5a5750806080015181610100015160200151115b80611b8d575080608001518160e001516020015111158015611b8c5750806101000151602001518160e0015160200151115b5b15611b9f578060200151935050611c13565b80608001518161010001516020015111158015611bc7575080608001518160e0015160200151115b80611bfb575080608001518161010001516020015111158015611bfa5750806101000151602001518160e0015160200151105b5b15611c0d578060400151935050611c13565b60009350505b5050919050565b606060008054905060008060005b83811015611d29573373ffffffffffffffffffffffffffffffffffffffff166001600083815260200190815260200160002060010160009054906101000a900473ffffffffffffffffffffffffffffffffffffffff1673ffffffffffffffffffffffffffffffffffffffff161480611d0157503373ffffffffffffffffffffffffffffffffffffffff166001600083815260200190815260200160002060020160009054906101000a900473ffffffffffffffffffffffffffffffffffffffff1673ffffffffffffffffffffffffffffffffffffffff16145b15611d1657600183611d139190613449565b92505b8080611d21906135bf565b915050611c28565b5060008267ffffffffffffffff811115611d6c577f4e487b7100000000000000000000000000000000000000000000000000000000600052604160045260246000fd5b604051908082528060200260200182016040528015611da557816020015b611d92612e28565b815260200190600190039081611d8a5790505b50905060005b848110156121d9573373ffffffffffffffffffffffffffffffffffffffff166001600083815260200190815260200160002060010160009054906101000a900473ffffffffffffffffffffffffffffffffffffffff1673ffffffffffffffffffffffffffffffffffffffff161480611e8457503373ffffffffffffffffffffffffffffffffffffffff166001600083815260200190815260200160002060020160009054906101000a900473ffffffffffffffffffffffffffffffffffffffff1673ffffffffffffffffffffffffffffffffffffffff16145b156121c657600081905060006001600083815260200190815260200160002090508060405180610160016040529081600082015481526020016001820160009054906101000a900473ffffffffffffffffffffffffffffffffffffffff1673ffffffffffffffffffffffffffffffffffffffff1673ffffffffffffffffffffffffffffffffffffffff1681526020016002820160009054906101000a900473ffffffffffffffffffffffffffffffffffffffff1673ffffffffffffffffffffffffffffffffffffffff1673ffffffffffffffffffffffffffffffffffffffff1681526020016002820160149054906101000a900460ff166002811115611fb3577f4e487b7100000000000000000000000000000000000000000000000000000000600052602160045260246000fd5b6002811115611feb577f4e487b7100000000000000000000000000000000000000000000000000000000600052602160045260246000fd5b815260200160038201548152602001600482015481526020016005820160009054906101000a900460ff16600181111561204e577f4e487b7100000000000000000000000000000000000000000000000000000000600052602160045260246000fd5b6001811115612086577f4e487b7100000000000000000000000000000000000000000000000000000000600052602160045260246000fd5b81526020016006820160405180606001604052908160008201548152602001600182015481526020016002820160009054906101000a900460ff16151515158152505081526020016009820160405180606001604052908160008201548152602001600182015481526020016002820160009054906101000a900460ff1615151515815250508152602001600c820160009054906101000a900473ffffffffffffffffffffffffffffffffffffffff1673ffffffffffffffffffffffffffffffffffffffff1673ffffffffffffffffffffffffffffffffffffffff168152602001600d820154815250508486815181106121a9577f4e487b7100000000000000000000000000000000000000000000000000000000600052603260045260246000fd5b60200260200101819052506001856121c19190613449565b945050505b80806121d1906135bf565b915050611dab565b508094505050505090565b806002806002811115612220577f4e487b7100000000000000000000000000000000000000000000000000000000600052602160045260246000fd5b6001600084815260200190815260200160002060020160149054906101000a900460ff16600281111561227c577f4e487b7100000000000000000000000000000000000000000000000000000000600052602160045260246000fd5b1461228657600080fd5b823360006001600084815260200190815260200160002060405180610160016040529081600082015481526020016001820160009054906101000a900473ffffffffffffffffffffffffffffffffffffffff1673ffffffffffffffffffffffffffffffffffffffff1673ffffffffffffffffffffffffffffffffffffffff1681526020016002820160009054906101000a900473ffffffffffffffffffffffffffffffffffffffff1673ffffffffffffffffffffffffffffffffffffffff1673ffffffffffffffffffffffffffffffffffffffff1681526020016002820160149054906101000a900460ff1660028111156123aa577f4e487b7100000000000000000000000000000000000000000000000000000000600052602160045260246000fd5b60028111156123e2577f4e487b7100000000000000000000000000000000000000000000000000000000600052602160045260246000fd5b815260200160038201548152602001600482015481526020016005820160009054906101000a900460ff166001811115612445577f4e487b7100000000000000000000000000000000000000000000000000000000600052602160045260246000fd5b600181111561247d577f4e487b7100000000000000000000000000000000000000000000000000000000600052602160045260246000fd5b81526020016006820160405180606001604052908160008201548152602001600182015481526020016002820160009054906101000a900460ff16151515158152505081526020016009820160405180606001604052908160008201548152602001600182015481526020016002820160009054906101000a900460ff1615151515815250508152602001600c820160009054906101000a900473ffffffffffffffffffffffffffffffffffffffff1673ffffffffffffffffffffffffffffffffffffffff1673ffffffffffffffffffffffffffffffffffffffff168152602001600d8201548152505090508173ffffffffffffffffffffffffffffffffffffffff1681610120015173ffffffffffffffffffffffffffffffffffffffff16146125a657600080fd5b60006001600088815260200190815260200160002060405180610160016040529081600082015481526020016001820160009054906101000a900473ffffffffffffffffffffffffffffffffffffffff1673ffffffffffffffffffffffffffffffffffffffff1673ffffffffffffffffffffffffffffffffffffffff1681526020016002820160009054906101000a900473ffffffffffffffffffffffffffffffffffffffff1673ffffffffffffffffffffffffffffffffffffffff1673ffffffffffffffffffffffffffffffffffffffff1681526020016002820160149054906101000a900460ff1660028111156126c8577f4e487b7100000000000000000000000000000000000000000000000000000000600052602160045260246000fd5b6002811115612700577f4e487b7100000000000000000000000000000000000000000000000000000000600052602160045260246000fd5b815260200160038201548152602001600482015481526020016005820160009054906101000a900460ff166001811115612763577f4e487b7100000000000000000000000000000000000000000000000000000000600052602160045260246000fd5b600181111561279b577f4e487b7100000000000000000000000000000000000000000000000000000000600052602160045260246000fd5b81526020016006820160405180606001604052908160008201548152602001600182015481526020016002820160009054906101000a900460ff16151515158152505081526020016009820160405180606001604052908160008201548152602001600182015481526020016002820160009054906101000a900460ff1615151515815250508152602001600c820160009054906101000a900473ffffffffffffffffffffffffffffffffffffffff1673ffffffffffffffffffffffffffffffffffffffff1673ffffffffffffffffffffffffffffffffffffffff168152602001600d8201548152505090503373ffffffffffffffffffffffffffffffffffffffff166108fc60028361014001516128b3919061349f565b9081150290604051600060405180830381858888f193505050501580156128de573d6000803e3d6000fd5b5050505050505050565b606060008054905060008060005b8381101561298b573373ffffffffffffffffffffffffffffffffffffffff166001600083815260200190815260200160002060020160009054906101000a900473ffffffffffffffffffffffffffffffffffffffff1673ffffffffffffffffffffffffffffffffffffffff161415612978576001836129759190613449565b92505b8080612983906135bf565b9150506128f6565b5060008267ffffffffffffffff8111156129ce577f4e487b7100000000000000000000000000000000000000000000000000000000600052604160045260246000fd5b604051908082528060200260200182016040528015612a0757816020015b6129f4612e28565b8152602001906001900390816129ec5790505b50905060005b84811015612dcf573373ffffffffffffffffffffffffffffffffffffffff166001600083815260200190815260200160002060020160009054906101000a900473ffffffffffffffffffffffffffffffffffffffff1673ffffffffffffffffffffffffffffffffffffffff161415612dbc57600081905060006001600083815260200190815260200160002090508060405180610160016040529081600082015481526020016001820160009054906101000a900473ffffffffffffffffffffffffffffffffffffffff1673ffffffffffffffffffffffffffffffffffffffff1673ffffffffffffffffffffffffffffffffffffffff1681526020016002820160009054906101000a900473ffffffffffffffffffffffffffffffffffffffff1673ffffffffffffffffffffffffffffffffffffffff1673ffffffffffffffffffffffffffffffffffffffff1681526020016002820160149054906101000a900460ff166002811115612ba9577f4e487b7100000000000000000000000000000000000000000000000000000000600052602160045260246000fd5b6002811115612be1577f4e487b7100000000000000000000000000000000000000000000000000000000600052602160045260246000fd5b815260200160038201548152602001600482015481526020016005820160009054906101000a900460ff166001811115612c44577f4e487b7100000000000000000000000000000000000000000000000000000000600052602160045260246000fd5b6001811115612c7c577f4e487b7100000000000000000000000000000000000000000000000000000000600052602160045260246000fd5b81526020016006820160405180606001604052908160008201548152602001600182015481526020016002820160009054906101000a900460ff16151515158152505081526020016009820160405180606001604052908160008201548152602001600182015481526020016002820160009054906101000a900460ff1615151515815250508152602001600c820160009054906101000a900473ffffffffffffffffffffffffffffffffffffffff1673ffffffffffffffffffffffffffffffffffffffff1673ffffffffffffffffffffffffffffffffffffffff168152602001600d82015481525050848681518110612d9f577f4e487b7100000000000000000000000000000000000000000000000000000000600052603260045260246000fd5b6020026020010181905250600185612db79190613449565b945050505b8080612dc7906135bf565b915050612a0d565b508094505050505090565b60006001600644426006604051602001612df6939291906132d0565b6040516020818303038152906040528051906020012060001c612e199190613612565b612e239190613449565b905090565b60405180610160016040528060008152602001600073ffffffffffffffffffffffffffffffffffffffff168152602001600073ffffffffffffffffffffffffffffffffffffffff16815260200160006002811115612eaf577f4e487b7100000000000000000000000000000000000000000000000000000000600052602160045260246000fd5b8152602001600081526020016000815260200160006001811115612efc577f4e487b7100000000000000000000000000000000000000000000000000000000600052602160045260246000fd5b8152602001612f09612f40565b8152602001612f16612f40565b8152602001600073ffffffffffffffffffffffffffffffffffffffff168152602001600081525090565b604051806060016040528060008152602001600081526020016000151581525090565b600081359050612f72816136f8565b92915050565b600081359050612f878161370f565b92915050565b600081359050612f9c81613726565b92915050565b600080600060608486031215612fb757600080fd5b6000612fc586828701612f63565b9350506020612fd686828701612f8d565b9250506040612fe786828701612f8d565b9150509250925092565b60006020828403121561300357600080fd5b600061301184828501612f8d565b91505092915050565b6000806040838503121561302d57600080fd5b600061303b85828601612f8d565b925050602061304c85828601612f78565b9150509250929050565b60006130628383613136565b6101e08301905092915050565b6130788161352d565b82525050565b6130878161352d565b82525050565b600061309882613420565b6130a28185613438565b93506130ad83613410565b8060005b838110156130de5781516130c58882613056565b97506130d08361342b565b9250506001810190506130b1565b5085935050505092915050565b6130f48161353f565b82525050565b6131038161359b565b82525050565b6131128161359b565b82525050565b613121816135ad565b82525050565b613130816135ad565b82525050565b6101e08201600082015161314d600085018261329b565b506020820151613160602085018261306f565b506040820151613173604085018261306f565b5060608201516131866060850182613118565b506080820151613199608085018261329b565b5060a08201516131ac60a085018261329b565b5060c08201516131bf60c08501826130fa565b5060e08201516131d260e0850182613217565b506101008201516131e7610140850182613217565b506101208201516131fc6101a085018261306f565b506101408201516132116101c085018261329b565b50505050565b60608201600082015161322d600085018261329b565b506020820151613240602085018261329b565b50604082015161325360408501826130eb565b50505050565b60608201600082015161326f600085018261329b565b506020820151613282602085018261329b565b50604082015161329560408501826130eb565b50505050565b6132a481613591565b82525050565b6132b381613591565b82525050565b6132ca6132c582613591565b613608565b82525050565b60006132dc82866132b9565b6020820191506132ec82856132b9565b6020820191506132fc82846132b9565b602082019150819050949350505050565b6000602082019050613322600083018461307e565b92915050565b60006020820190508181036000830152613342818461308d565b905092915050565b600060208201905061335f60008301846132aa565b92915050565b60006101e08201905061337b600083018e6132aa565b613388602083018d61307e565b613395604083018c61307e565b6133a2606083018b613127565b6133af608083018a6132aa565b6133bc60a08301896132aa565b6133c960c0830188613109565b6133d660e0830187613259565b6133e4610140830186613259565b6133f26101a083018561307e565b6134006101c08301846132aa565b9c9b505050505050505050505050565b6000819050602082019050919050565b600081519050919050565b6000602082019050919050565b600082825260208201905092915050565b600061345482613591565b915061345f83613591565b9250827fffffffffffffffffffffffffffffffffffffffffffffffffffffffffffffffff0382111561349457613493613643565b5b828201905092915050565b60006134aa82613591565b91506134b583613591565b9250817fffffffffffffffffffffffffffffffffffffffffffffffffffffffffffffffff04831182151516156134ee576134ed613643565b5b828202905092915050565b600061350482613591565b915061350f83613591565b92508282101561352257613521613643565b5b828203905092915050565b600061353882613571565b9050919050565b60008115159050919050565b6000819050613559826136d0565b919050565b600081905061356c826136e4565b919050565b600073ffffffffffffffffffffffffffffffffffffffff82169050919050565b6000819050919050565b60006135a68261354b565b9050919050565b60006135b88261355e565b9050919050565b60006135ca82613591565b91507fffffffffffffffffffffffffffffffffffffffffffffffffffffffffffffffff8214156135fd576135fc613643565b5b600182019050919050565b6000819050919050565b600061361d82613591565b915061362883613591565b92508261363857613637613672565b5b828206905092915050565b7f4e487b7100000000000000000000000000000000000000000000000000000000600052601160045260246000fd5b7f4e487b7100000000000000000000000000000000000000000000000000000000600052601260045260246000fd5b7f4e487b7100000000000000000000000000000000000000000000000000000000600052602160045260246000fd5b600281106136e1576136e06136a1565b5b50565b600381106136f5576136f46136a1565b5b50565b6137018161352d565b811461370c57600080fd5b50565b6137188161353f565b811461372357600080fd5b50565b61372f81613591565b811461373a57600080fd5b5056fea264697066735822122070c80c48ee88eb9339efccc887c83b84dd97b3f61564479a1b48a74db96b884164736f6c63430008040033",
  "linkReferences": {},
  "deployedLinkReferences": {}
}