{
  "_format": "hh-sol-artifact-1",
  "contractName": "DiceIt",
  "sourceName": "contracts/DiceIt.sol",
  "abi": [
    {
      "anonymous": false,
      "inputs": [
        {
          "indexed": true,
          "internalType": "address",
          "name": "_from",
          "type": "address"
        },
        {
          "indexed": true,
          "internalType": "uint256",
          "name": "index",
          "type": "uint256"
        },
        {
          "indexed": true,
          "internalType": "enum DiceIt.Stage",
          "name": "_stage",
          "type": "uint8"
        }
      ],
      "name": "GameStageChange",
      "type": "event"
    },
    {
      "anonymous": false,
      "inputs": [
        {
          "indexed": true,
          "internalType": "address",
          "name": "_from",
          "type": "address"
        },
        {
          "indexed": true,
          "internalType": "uint256",
          "name": "index",
          "type": "uint256"
        },
        {
          "indexed": false,
          "internalType": "uint256",
          "name": "_turn",
          "type": "uint256"
        },
        {
          "indexed": false,
          "internalType": "uint256",
          "name": "_score",
          "type": "uint256"
        }
      ],
      "name": "GameTurnPlayed",
      "type": "event"
    },
    {
      "inputs": [
        {
          "internalType": "uint256",
          "name": "gameId",
          "type": "uint256"
        }
      ],
      "name": "challengerBet",
      "outputs": [],
      "stateMutability": "payable",
      "type": "function"
    },
    {
      "inputs": [
        {
          "internalType": "address",
          "name": "_challenger",
          "type": "address"
        },
        {
          "internalType": "uint256",
          "name": "_maxScore",
          "type": "uint256"
        },
        {
          "internalType": "uint256",
          "name": "_maxTurn",
          "type": "uint256"
        }
      ],
      "name": "createGame",
      "outputs": [],
      "stateMutability": "payable",
      "type": "function"
    },
    {
      "inputs": [],
      "name": "fetchMyGames",
      "outputs": [
        {
          "components": [
            {
              "internalType": "uint256",
              "name": "id",
              "type": "uint256"
            },
            {
              "internalType": "address",
              "name": "owner",
              "type": "address"
            },
            {
              "internalType": "address",
              "name": "challenger",
              "type": "address"
            },
            {
              "internalType": "enum DiceIt.Stage",
              "name": "stage",
              "type": "uint8"
            },
            {
              "internalType": "uint256",
              "name": "maxScore",
              "type": "uint256"
            },
            {
              "internalType": "uint256",
              "name": "maxTurn",
              "type": "uint256"
            },
            {
              "internalType": "enum DiceIt.CurrentPlayer",
              "name": "currentPlayer",
              "type": "uint8"
            },
            {
              "components": [
                {
                  "internalType": "uint256",
                  "name": "turn",
                  "type": "uint256"
                },
                {
                  "internalType": "uint256",
                  "name": "score",
                  "type": "uint256"
                },
                {
                  "internalType": "bool",
                  "name": "stop",
                  "type": "bool"
                }
              ],
              "internalType": "struct DiceIt.Player",
              "name": "ownerPlayer",
              "type": "tuple"
            },
            {
              "components": [
                {
                  "internalType": "uint256",
                  "name": "turn",
                  "type": "uint256"
                },
                {
                  "internalType": "uint256",
                  "name": "score",
                  "type": "uint256"
                },
                {
                  "internalType": "bool",
                  "name": "stop",
                  "type": "bool"
                }
              ],
              "internalType": "struct DiceIt.Player",
              "name": "challengerPlayer",
              "type": "tuple"
            },
            {
              "internalType": "address",
              "name": "winner",
              "type": "address"
            },
            {
              "internalType": "uint256",
              "name": "bet",
              "type": "uint256"
            }
          ],
          "internalType": "struct DiceIt.Game[]",
          "name": "_myGames",
          "type": "tuple[]"
        }
      ],
      "stateMutability": "view",
      "type": "function"
    },
    {
      "inputs": [
        {
          "internalType": "uint256",
          "name": "",
          "type": "uint256"
        }
      ],
      "name": "games",
      "outputs": [
        {
          "internalType": "uint256",
          "name": "id",
          "type": "uint256"
        },
        {
          "internalType": "address",
          "name": "owner",
          "type": "address"
        },
        {
          "internalType": "address",
          "name": "challenger",
          "type": "address"
        },
        {
          "internalType": "enum DiceIt.Stage",
          "name": "stage",
          "type": "uint8"
        },
        {
          "internalType": "uint256",
          "name": "maxScore",
          "type": "uint256"
        },
        {
          "internalType": "uint256",
          "name": "maxTurn",
          "type": "uint256"
        },
        {
          "internalType": "enum DiceIt.CurrentPlayer",
          "name": "currentPlayer",
          "type": "uint8"
        },
        {
          "components": [
            {
              "internalType": "uint256",
              "name": "turn",
              "type": "uint256"
            },
            {
              "internalType": "uint256",
              "name": "score",
              "type": "uint256"
            },
            {
              "internalType": "bool",
              "name": "stop",
              "type": "bool"
            }
          ],
          "internalType": "struct DiceIt.Player",
          "name": "ownerPlayer",
          "type": "tuple"
        },
        {
          "components": [
            {
              "internalType": "uint256",
              "name": "turn",
              "type": "uint256"
            },
            {
              "internalType": "uint256",
              "name": "score",
              "type": "uint256"
            },
            {
              "internalType": "bool",
              "name": "stop",
              "type": "bool"
            }
          ],
          "internalType": "struct DiceIt.Player",
          "name": "challengerPlayer",
          "type": "tuple"
        },
        {
          "internalType": "address",
          "name": "winner",
          "type": "address"
        },
        {
          "internalType": "uint256",
          "name": "bet",
          "type": "uint256"
        }
      ],
      "stateMutability": "view",
      "type": "function"
    },
    {
      "inputs": [
        {
          "internalType": "uint256",
          "name": "gameId",
          "type": "uint256"
        },
        {
          "internalType": "bool",
          "name": "draw",
          "type": "bool"
        }
      ],
      "name": "playTurn",
      "outputs": [],
      "stateMutability": "payable",
      "type": "function"
    },
    {
      "inputs": [
        {
          "internalType": "uint256",
          "name": "gameId",
          "type": "uint256"
        }
      ],
      "name": "setWinner",
      "outputs": [
        {
          "internalType": "address",
          "name": "winner",
          "type": "address"
        }
      ],
      "stateMutability": "view",
      "type": "function"
    }
  ],
  "bytecode": "0x60806040526000805534801561001457600080fd5b506127cd806100246000396000f3fe6080604052600436106100555760003560e01c80630df716021461005a578063117a5b90146100975780632d76375d146100de5780633b17469e146100fa57806387fb99f614610116578063a40bf06114610132575b600080fd5b34801561006657600080fd5b50610081600480360381019061007c9190612071565b61015d565b60405161008e919061238d565b60405180910390f35b3480156100a357600080fd5b506100be60048036038101906100b99190612071565b6105ca565b6040516100d59b9a999897969594939291906123ca565b60405180910390f35b6100f860048036038101906100f3919061209a565b610710565b005b610114600480360381019061010f9190612022565b6112c6565b005b610130600480360381019061012b9190612071565b6116f0565b005b34801561013e57600080fd5b50610147611890565b60405161015491906123a8565b60405180910390f35b600081600280600281111561019b577f4e487b7100000000000000000000000000000000000000000000000000000000600052602160045260246000fd5b6001600084815260200190815260200160002060020160149054906101000a900460ff1660028111156101f7577f4e487b7100000000000000000000000000000000000000000000000000000000600052602160045260246000fd5b1461020157600080fd5b60006001600086815260200190815260200160002060405180610160016040529081600082015481526020016001820160009054906101000a900473ffffffffffffffffffffffffffffffffffffffff1673ffffffffffffffffffffffffffffffffffffffff1673ffffffffffffffffffffffffffffffffffffffff1681526020016002820160009054906101000a900473ffffffffffffffffffffffffffffffffffffffff1673ffffffffffffffffffffffffffffffffffffffff1673ffffffffffffffffffffffffffffffffffffffff1681526020016002820160149054906101000a900460ff166002811115610323577f4e487b7100000000000000000000000000000000000000000000000000000000600052602160045260246000fd5b600281111561035b577f4e487b7100000000000000000000000000000000000000000000000000000000600052602160045260246000fd5b815260200160038201548152602001600482015481526020016005820160009054906101000a900460ff1660018111156103be577f4e487b7100000000000000000000000000000000000000000000000000000000600052602160045260246000fd5b60018111156103f6577f4e487b7100000000000000000000000000000000000000000000000000000000600052602160045260246000fd5b81526020016006820160405180606001604052908160008201548152602001600182015481526020016002820160009054906101000a900460ff16151515158152505081526020016009820160405180606001604052908160008201548152602001600182015481526020016002820160009054906101000a900460ff1615151515815250508152602001600c820160009054906101000a900473ffffffffffffffffffffffffffffffffffffffff1673ffffffffffffffffffffffffffffffffffffffff1673ffffffffffffffffffffffffffffffffffffffff168152602001600d82015481525050905080608001518160e00151602001511115801561050a5750806080015181610100015160200151115b8061053d575080608001518160e00151602001511115801561053c5750806101000151602001518160e0015160200151115b5b1561054f5780602001519350506105c3565b80608001518161010001516020015111158015610577575080608001518160e0015160200151115b806105ab5750806080015181610100015160200151111580156105aa5750806101000151602001518160e0015160200151105b5b156105bd5780604001519350506105c3565b60009350505b5050919050565b60016020528060005260406000206000915090508060000154908060010160009054906101000a900473ffffffffffffffffffffffffffffffffffffffff16908060020160009054906101000a900473ffffffffffffffffffffffffffffffffffffffff16908060020160149054906101000a900460ff16908060030154908060040154908060050160009054906101000a900460ff16908060060160405180606001604052908160008201548152602001600182015481526020016002820160009054906101000a900460ff161515151581525050908060090160405180606001604052908160008201548152602001600182015481526020016002820160009054906101000a900460ff1615151515815250509080600c0160009054906101000a900473ffffffffffffffffffffffffffffffffffffffff169080600d015490508b565b81600180600281111561074c577f4e487b7100000000000000000000000000000000000000000000000000000000600052602160045260246000fd5b6001600084815260200190815260200160002060020160149054906101000a900460ff1660028111156107a8577f4e487b7100000000000000000000000000000000000000000000000000000000600052602160045260246000fd5b146107b257600080fd5b833360006001600084815260200190815260200160002060405180610160016040529081600082015481526020016001820160009054906101000a900473ffffffffffffffffffffffffffffffffffffffff1673ffffffffffffffffffffffffffffffffffffffff1673ffffffffffffffffffffffffffffffffffffffff1681526020016002820160009054906101000a900473ffffffffffffffffffffffffffffffffffffffff1673ffffffffffffffffffffffffffffffffffffffff1673ffffffffffffffffffffffffffffffffffffffff1681526020016002820160149054906101000a900460ff1660028111156108d6577f4e487b7100000000000000000000000000000000000000000000000000000000600052602160045260246000fd5b600281111561090e577f4e487b7100000000000000000000000000000000000000000000000000000000600052602160045260246000fd5b815260200160038201548152602001600482015481526020016005820160009054906101000a900460ff166001811115610971577f4e487b7100000000000000000000000000000000000000000000000000000000600052602160045260246000fd5b60018111156109a9577f4e487b7100000000000000000000000000000000000000000000000000000000600052602160045260246000fd5b81526020016006820160405180606001604052908160008201548152602001600182015481526020016002820160009054906101000a900460ff16151515158152505081526020016009820160405180606001604052908160008201548152602001600182015481526020016002820160009054906101000a900460ff1615151515815250508152602001600c820160009054906101000a900473ffffffffffffffffffffffffffffffffffffffff1673ffffffffffffffffffffffffffffffffffffffff1673ffffffffffffffffffffffffffffffffffffffff168152602001600d8201548152505090506000816020015173ffffffffffffffffffffffffffffffffffffffff168373ffffffffffffffffffffffffffffffffffffffff161415610b67578160c001516001811115610b0c577f4e487b7100000000000000000000000000000000000000000000000000000000600052602160045260246000fd5b60006001811115610b46577f4e487b7100000000000000000000000000000000000000000000000000000000600052602160045260246000fd5b148015610b5957508160e0015160400151155b610b6257600080fd5b610c3d565b816040015173ffffffffffffffffffffffffffffffffffffffff168373ffffffffffffffffffffffffffffffffffffffff161415610c37578160c001516001811115610bdc577f4e487b7100000000000000000000000000000000000000000000000000000000600052602160045260246000fd5b600180811115610c15577f4e487b7100000000000000000000000000000000000000000000000000000000600052602160045260246000fd5b148015610c29575081610100015160400151155b610c3257600080fd5b610c3c565b600080fd5b5b6000610c47611e5a565b90506000600160008b815260200190815260200160002090506000808260010160009054906101000a900473ffffffffffffffffffffffffffffffffffffffff1673ffffffffffffffffffffffffffffffffffffffff163373ffffffffffffffffffffffffffffffffffffffff161415610ccc57826006019150826009019050610d3b565b8260020160009054906101000a900473ffffffffffffffffffffffffffffffffffffffff1673ffffffffffffffffffffffffffffffffffffffff163373ffffffffffffffffffffffffffffffffffffffff161415610d3557826009019150826006019050610d3a565b600080fd5b5b8a15610d5d5783826001016000828254610d5591906124d7565b925050819055505b816000016000815480929190610d7290612619565b91905055508a1580610d8b575082600301548260010154115b80610d9e57508260040154826000015410155b15610dc15760018260020160006101000a81548160ff0219169083151502179055505b8260010160009054906101000a900473ffffffffffffffffffffffffffffffffffffffff1673ffffffffffffffffffffffffffffffffffffffff163373ffffffffffffffffffffffffffffffffffffffff16148015610e2f57508060020160009054906101000a900460ff16155b15610e8c5760018360050160006101000a81548160ff02191690836001811115610e82577f4e487b7100000000000000000000000000000000000000000000000000000000600052602160045260246000fd5b0217905550610f54565b8260020160009054906101000a900473ffffffffffffffffffffffffffffffffffffffff1673ffffffffffffffffffffffffffffffffffffffff163373ffffffffffffffffffffffffffffffffffffffff16148015610efa57508060020160009054906101000a900460ff16155b15610f535760008360050160006101000a81548160ff02191690836001811115610f4d577f4e487b7100000000000000000000000000000000000000000000000000000000600052602160045260246000fd5b02179055505b5b8260060160020160009054906101000a900460ff168015610f8657508260090160020160009054906101000a900460ff165b156112b85760028360020160146101000a81548160ff02191690836002811115610fd9577f4e487b7100000000000000000000000000000000000000000000000000000000600052602160045260246000fd5b0217905550610fe78c61015d565b83600c0160006101000a81548173ffffffffffffffffffffffffffffffffffffffff021916908373ffffffffffffffffffffffffffffffffffffffff160217905550600073ffffffffffffffffffffffffffffffffffffffff1683600c0160009054906101000a900473ffffffffffffffffffffffffffffffffffffffff1673ffffffffffffffffffffffffffffffffffffffff161415611165578260010160009054906101000a900473ffffffffffffffffffffffffffffffffffffffff1673ffffffffffffffffffffffffffffffffffffffff166108fc84600d01549081150290604051600060405180830381858888f193505050501580156110f0573d6000803e3d6000fd5b508260020160009054906101000a900473ffffffffffffffffffffffffffffffffffffffff1673ffffffffffffffffffffffffffffffffffffffff166108fc84600d01549081150290604051600060405180830381858888f1935050505015801561115f573d6000803e3d6000fd5b506111e1565b82600c0160009054906101000a900473ffffffffffffffffffffffffffffffffffffffff1673ffffffffffffffffffffffffffffffffffffffff166108fc600285600d01546111b4919061252d565b9081150290604051600060405180830381858888f193505050501580156111df573d6000803e3d6000fd5b505b8b3373ffffffffffffffffffffffffffffffffffffffff167f2054774cb7e925725eac8501bba9c917d5c7e691145abf5a81d39841d0a5371384600001548560010154604051611232929190612475565b60405180910390a3600280811115611273577f4e487b7100000000000000000000000000000000000000000000000000000000600052602160045260246000fd5b8c3373ffffffffffffffffffffffffffffffffffffffff167f547e2e1ba13d6a72dfe27bd9814ab46412060b71fa2069142b1c7cff5d96b01a60405160405180910390a45b505050505050505050505050565b600034116112d357600080fd5b60405180610160016040528060005481526020013373ffffffffffffffffffffffffffffffffffffffff1681526020018473ffffffffffffffffffffffffffffffffffffffff16815260200160006002811115611359577f4e487b7100000000000000000000000000000000000000000000000000000000600052602160045260246000fd5b81526020018381526020018281526020016001808111156113a3577f4e487b7100000000000000000000000000000000000000000000000000000000600052602160045260246000fd5b81526020016040518060600160405280600081526020016000815260200160001515815250815260200160405180606001604052806000815260200160008152602001600015158152508152602001600073ffffffffffffffffffffffffffffffffffffffff1681526020013481525060016000805481526020019081526020016000206000820151816000015560208201518160010160006101000a81548173ffffffffffffffffffffffffffffffffffffffff021916908373ffffffffffffffffffffffffffffffffffffffff16021790555060408201518160020160006101000a81548173ffffffffffffffffffffffffffffffffffffffff021916908373ffffffffffffffffffffffffffffffffffffffff16021790555060608201518160020160146101000a81548160ff02191690836002811115611510577f4e487b7100000000000000000000000000000000000000000000000000000000600052602160045260246000fd5b02179055506080820151816003015560a0820151816004015560c08201518160050160006101000a81548160ff0219169083600181111561157a577f4e487b7100000000000000000000000000000000000000000000000000000000600052602160045260246000fd5b021790555060e082015181600601600082015181600001556020820151816001015560408201518160020160006101000a81548160ff021916908315150217905550505061010082015181600901600082015181600001556020820151816001015560408201518160020160006101000a81548160ff021916908315150217905550505061012082015181600c0160006101000a81548173ffffffffffffffffffffffffffffffffffffffff021916908373ffffffffffffffffffffffffffffffffffffffff16021790555061014082015181600d01559050506000600281111561168e577f4e487b7100000000000000000000000000000000000000000000000000000000600052602160045260246000fd5b6000543373ffffffffffffffffffffffffffffffffffffffff167f547e2e1ba13d6a72dfe27bd9814ab46412060b71fa2069142b1c7cff5d96b01a60405160405180910390a46000808154809291906116e690612619565b9190505550505050565b80600080600281111561172c577f4e487b7100000000000000000000000000000000000000000000000000000000600052602160045260246000fd5b6001600084815260200190815260200160002060020160149054906101000a900460ff166002811115611788577f4e487b7100000000000000000000000000000000000000000000000000000000600052602160045260246000fd5b1461179257600080fd5b600060016000858152602001908152602001600020905080600d015434146117b957600080fd5b60018160020160146101000a81548160ff02191690836002811115611807577f4e487b7100000000000000000000000000000000000000000000000000000000600052602160045260246000fd5b021790555060016002811115611846577f4e487b7100000000000000000000000000000000000000000000000000000000600052602160045260246000fd5b843373ffffffffffffffffffffffffffffffffffffffff167f547e2e1ba13d6a72dfe27bd9814ab46412060b71fa2069142b1c7cff5d96b01a60405160405180910390a450505050565b606060008054905060008060005b8381101561199f573373ffffffffffffffffffffffffffffffffffffffff166001600083815260200190815260200160002060010160009054906101000a900473ffffffffffffffffffffffffffffffffffffffff1673ffffffffffffffffffffffffffffffffffffffff16148061197757503373ffffffffffffffffffffffffffffffffffffffff166001600083815260200190815260200160002060020160009054906101000a900473ffffffffffffffffffffffffffffffffffffffff1673ffffffffffffffffffffffffffffffffffffffff16145b1561198c5760018361198991906124d7565b92505b808061199790612619565b91505061189e565b5060008267ffffffffffffffff8111156119e2577f4e487b7100000000000000000000000000000000000000000000000000000000600052604160045260246000fd5b604051908082528060200260200182016040528015611a1b57816020015b611a08611ea8565b815260200190600190039081611a005790505b50905060005b84811015611e4f573373ffffffffffffffffffffffffffffffffffffffff166001600083815260200190815260200160002060010160009054906101000a900473ffffffffffffffffffffffffffffffffffffffff1673ffffffffffffffffffffffffffffffffffffffff161480611afa57503373ffffffffffffffffffffffffffffffffffffffff166001600083815260200190815260200160002060020160009054906101000a900473ffffffffffffffffffffffffffffffffffffffff1673ffffffffffffffffffffffffffffffffffffffff16145b15611e3c57600081905060006001600083815260200190815260200160002090508060405180610160016040529081600082015481526020016001820160009054906101000a900473ffffffffffffffffffffffffffffffffffffffff1673ffffffffffffffffffffffffffffffffffffffff1673ffffffffffffffffffffffffffffffffffffffff1681526020016002820160009054906101000a900473ffffffffffffffffffffffffffffffffffffffff1673ffffffffffffffffffffffffffffffffffffffff1673ffffffffffffffffffffffffffffffffffffffff1681526020016002820160149054906101000a900460ff166002811115611c29577f4e487b7100000000000000000000000000000000000000000000000000000000600052602160045260246000fd5b6002811115611c61577f4e487b7100000000000000000000000000000000000000000000000000000000600052602160045260246000fd5b815260200160038201548152602001600482015481526020016005820160009054906101000a900460ff166001811115611cc4577f4e487b7100000000000000000000000000000000000000000000000000000000600052602160045260246000fd5b6001811115611cfc577f4e487b7100000000000000000000000000000000000000000000000000000000600052602160045260246000fd5b81526020016006820160405180606001604052908160008201548152602001600182015481526020016002820160009054906101000a900460ff16151515158152505081526020016009820160405180606001604052908160008201548152602001600182015481526020016002820160009054906101000a900460ff1615151515815250508152602001600c820160009054906101000a900473ffffffffffffffffffffffffffffffffffffffff1673ffffffffffffffffffffffffffffffffffffffff1673ffffffffffffffffffffffffffffffffffffffff168152602001600d82015481525050848681518110611e1f577f4e487b7100000000000000000000000000000000000000000000000000000000600052603260045260246000fd5b6020026020010181905250600185611e3791906124d7565b945050505b8080611e4790612619565b915050611a21565b508094505050505090565b60006001600644426006604051602001611e7693929190612350565b6040516020818303038152906040528051906020012060001c611e99919061266c565b611ea391906124d7565b905090565b60405180610160016040528060008152602001600073ffffffffffffffffffffffffffffffffffffffff168152602001600073ffffffffffffffffffffffffffffffffffffffff16815260200160006002811115611f2f577f4e487b7100000000000000000000000000000000000000000000000000000000600052602160045260246000fd5b8152602001600081526020016000815260200160006001811115611f7c577f4e487b7100000000000000000000000000000000000000000000000000000000600052602160045260246000fd5b8152602001611f89611fc0565b8152602001611f96611fc0565b8152602001600073ffffffffffffffffffffffffffffffffffffffff168152602001600081525090565b604051806060016040528060008152602001600081526020016000151581525090565b600081359050611ff281612752565b92915050565b60008135905061200781612769565b92915050565b60008135905061201c81612780565b92915050565b60008060006060848603121561203757600080fd5b600061204586828701611fe3565b93505060206120568682870161200d565b92505060406120678682870161200d565b9150509250925092565b60006020828403121561208357600080fd5b60006120918482850161200d565b91505092915050565b600080604083850312156120ad57600080fd5b60006120bb8582860161200d565b92505060206120cc85828601611ff8565b9150509250929050565b60006120e283836121b6565b6101e08301905092915050565b6120f881612587565b82525050565b61210781612587565b82525050565b6000612118826124ae565b61212281856124c6565b935061212d8361249e565b8060005b8381101561215e57815161214588826120d6565b9750612150836124b9565b925050600181019050612131565b5085935050505092915050565b61217481612599565b82525050565b612183816125f5565b82525050565b612192816125f5565b82525050565b6121a181612607565b82525050565b6121b081612607565b82525050565b6101e0820160008201516121cd600085018261231b565b5060208201516121e060208501826120ef565b5060408201516121f360408501826120ef565b5060608201516122066060850182612198565b506080820151612219608085018261231b565b5060a082015161222c60a085018261231b565b5060c082015161223f60c085018261217a565b5060e082015161225260e0850182612297565b50610100820151612267610140850182612297565b5061012082015161227c6101a08501826120ef565b506101408201516122916101c085018261231b565b50505050565b6060820160008201516122ad600085018261231b565b5060208201516122c0602085018261231b565b5060408201516122d3604085018261216b565b50505050565b6060820160008201516122ef600085018261231b565b506020820151612302602085018261231b565b506040820151612315604085018261216b565b50505050565b612324816125eb565b82525050565b612333816125eb565b82525050565b61234a612345826125eb565b612662565b82525050565b600061235c8286612339565b60208201915061236c8285612339565b60208201915061237c8284612339565b602082019150819050949350505050565b60006020820190506123a260008301846120fe565b92915050565b600060208201905081810360008301526123c2818461210d565b905092915050565b60006101e0820190506123e0600083018e61232a565b6123ed602083018d6120fe565b6123fa604083018c6120fe565b612407606083018b6121a7565b612414608083018a61232a565b61242160a083018961232a565b61242e60c0830188612189565b61243b60e08301876122d9565b6124496101408301866122d9565b6124576101a08301856120fe565b6124656101c083018461232a565b9c9b505050505050505050505050565b600060408201905061248a600083018561232a565b612497602083018461232a565b9392505050565b6000819050602082019050919050565b600081519050919050565b6000602082019050919050565b600082825260208201905092915050565b60006124e2826125eb565b91506124ed836125eb565b9250827fffffffffffffffffffffffffffffffffffffffffffffffffffffffffffffffff038211156125225761252161269d565b5b828201905092915050565b6000612538826125eb565b9150612543836125eb565b9250817fffffffffffffffffffffffffffffffffffffffffffffffffffffffffffffffff048311821515161561257c5761257b61269d565b5b828202905092915050565b6000612592826125cb565b9050919050565b60008115159050919050565b60008190506125b38261272a565b919050565b60008190506125c68261273e565b919050565b600073ffffffffffffffffffffffffffffffffffffffff82169050919050565b6000819050919050565b6000612600826125a5565b9050919050565b6000612612826125b8565b9050919050565b6000612624826125eb565b91507fffffffffffffffffffffffffffffffffffffffffffffffffffffffffffffffff8214156126575761265661269d565b5b600182019050919050565b6000819050919050565b6000612677826125eb565b9150612682836125eb565b925082612692576126916126cc565b5b828206905092915050565b7f4e487b7100000000000000000000000000000000000000000000000000000000600052601160045260246000fd5b7f4e487b7100000000000000000000000000000000000000000000000000000000600052601260045260246000fd5b7f4e487b7100000000000000000000000000000000000000000000000000000000600052602160045260246000fd5b6002811061273b5761273a6126fb565b5b50565b6003811061274f5761274e6126fb565b5b50565b61275b81612587565b811461276657600080fd5b50565b61277281612599565b811461277d57600080fd5b50565b612789816125eb565b811461279457600080fd5b5056fea2646970667358221220a4151d9c91c8ff3eb23fd83ef712b460952ddedd07a969c8735415a89115bdaf64736f6c63430008040033",
  "linkReferences": {},
  "deployedLinkReferences": {}
}