{
  "_format": "hh-sol-artifact-1",
  "contractName": "DiceIt",
  "sourceName": "contracts/DiceIt.sol",
  "abi": [
    {
      "anonymous": false,
      "inputs": [
        {
          "indexed": true,
          "internalType": "address",
          "name": "_from",
          "type": "address"
        },
        {
          "indexed": true,
          "internalType": "uint256",
          "name": "index",
          "type": "uint256"
        },
        {
          "indexed": true,
          "internalType": "enum DiceIt.Stage",
          "name": "_stage",
          "type": "uint8"
        }
      ],
      "name": "GameStageChange",
      "type": "event"
    },
    {
      "inputs": [
        {
          "internalType": "uint256",
          "name": "gameId",
          "type": "uint256"
        }
      ],
      "name": "challengerBet",
      "outputs": [],
      "stateMutability": "payable",
      "type": "function"
    },
    {
      "inputs": [
        {
          "internalType": "address",
          "name": "_challenger",
          "type": "address"
        },
        {
          "internalType": "uint256",
          "name": "_maxScore",
          "type": "uint256"
        },
        {
          "internalType": "uint256",
          "name": "_maxTurn",
          "type": "uint256"
        }
      ],
      "name": "createGame",
      "outputs": [],
      "stateMutability": "payable",
      "type": "function"
    },
    {
      "inputs": [],
      "name": "fetchMyGames",
      "outputs": [
        {
          "components": [
            {
              "internalType": "uint256",
              "name": "id",
              "type": "uint256"
            },
            {
              "internalType": "address",
              "name": "owner",
              "type": "address"
            },
            {
              "internalType": "address",
              "name": "challenger",
              "type": "address"
            },
            {
              "internalType": "enum DiceIt.Stage",
              "name": "stage",
              "type": "uint8"
            },
            {
              "internalType": "uint256",
              "name": "maxScore",
              "type": "uint256"
            },
            {
              "internalType": "uint256",
              "name": "maxTurn",
              "type": "uint256"
            },
            {
              "internalType": "enum DiceIt.CurrentPlayer",
              "name": "currentPlayer",
              "type": "uint8"
            },
            {
              "components": [
                {
                  "internalType": "uint256",
                  "name": "turn",
                  "type": "uint256"
                },
                {
                  "internalType": "uint256",
                  "name": "score",
                  "type": "uint256"
                },
                {
                  "internalType": "bool",
                  "name": "stop",
                  "type": "bool"
                }
              ],
              "internalType": "struct DiceIt.Player",
              "name": "ownerPlayer",
              "type": "tuple"
            },
            {
              "components": [
                {
                  "internalType": "uint256",
                  "name": "turn",
                  "type": "uint256"
                },
                {
                  "internalType": "uint256",
                  "name": "score",
                  "type": "uint256"
                },
                {
                  "internalType": "bool",
                  "name": "stop",
                  "type": "bool"
                }
              ],
              "internalType": "struct DiceIt.Player",
              "name": "challengerPlayer",
              "type": "tuple"
            },
            {
              "internalType": "address",
              "name": "winner",
              "type": "address"
            },
            {
              "internalType": "uint256",
              "name": "bet",
              "type": "uint256"
            }
          ],
          "internalType": "struct DiceIt.Game[]",
          "name": "_myGames",
          "type": "tuple[]"
        }
      ],
      "stateMutability": "view",
      "type": "function"
    },
    {
      "inputs": [
        {
          "internalType": "uint256",
          "name": "",
          "type": "uint256"
        }
      ],
      "name": "games",
      "outputs": [
        {
          "internalType": "uint256",
          "name": "id",
          "type": "uint256"
        },
        {
          "internalType": "address",
          "name": "owner",
          "type": "address"
        },
        {
          "internalType": "address",
          "name": "challenger",
          "type": "address"
        },
        {
          "internalType": "enum DiceIt.Stage",
          "name": "stage",
          "type": "uint8"
        },
        {
          "internalType": "uint256",
          "name": "maxScore",
          "type": "uint256"
        },
        {
          "internalType": "uint256",
          "name": "maxTurn",
          "type": "uint256"
        },
        {
          "internalType": "enum DiceIt.CurrentPlayer",
          "name": "currentPlayer",
          "type": "uint8"
        },
        {
          "components": [
            {
              "internalType": "uint256",
              "name": "turn",
              "type": "uint256"
            },
            {
              "internalType": "uint256",
              "name": "score",
              "type": "uint256"
            },
            {
              "internalType": "bool",
              "name": "stop",
              "type": "bool"
            }
          ],
          "internalType": "struct DiceIt.Player",
          "name": "ownerPlayer",
          "type": "tuple"
        },
        {
          "components": [
            {
              "internalType": "uint256",
              "name": "turn",
              "type": "uint256"
            },
            {
              "internalType": "uint256",
              "name": "score",
              "type": "uint256"
            },
            {
              "internalType": "bool",
              "name": "stop",
              "type": "bool"
            }
          ],
          "internalType": "struct DiceIt.Player",
          "name": "challengerPlayer",
          "type": "tuple"
        },
        {
          "internalType": "address",
          "name": "winner",
          "type": "address"
        },
        {
          "internalType": "uint256",
          "name": "bet",
          "type": "uint256"
        }
      ],
      "stateMutability": "view",
      "type": "function"
    },
    {
      "inputs": [
        {
          "internalType": "uint256",
          "name": "gameId",
          "type": "uint256"
        },
        {
          "internalType": "bool",
          "name": "draw",
          "type": "bool"
        }
      ],
      "name": "playTurn",
      "outputs": [],
      "stateMutability": "payable",
      "type": "function"
    },
    {
      "inputs": [
        {
          "internalType": "uint256",
          "name": "gameId",
          "type": "uint256"
        }
      ],
      "name": "setWinner",
      "outputs": [
        {
          "internalType": "address",
          "name": "winner",
          "type": "address"
        }
      ],
      "stateMutability": "view",
      "type": "function"
    }
  ],
  "bytecode": "0x60806040526000805534801561001457600080fd5b506126ec806100246000396000f3fe6080604052600436106100555760003560e01c80630df716021461005a578063117a5b90146100975780632d76375d146100de5780633b17469e146100fa57806387fb99f614610116578063a40bf06114610132575b600080fd5b34801561006657600080fd5b50610081600480360381019061007c9190611fb9565b61015d565b60405161008e91906122d5565b60405180910390f35b3480156100a357600080fd5b506100be60048036038101906100b99190611fb9565b6105ca565b6040516100d59b9a99989796959493929190612312565b60405180910390f35b6100f860048036038101906100f39190611fe2565b610710565b005b610114600480360381019061010f9190611f6a565b61120e565b005b610130600480360381019061012b9190611fb9565b611638565b005b34801561013e57600080fd5b506101476117d8565b60405161015491906122f0565b60405180910390f35b600081600280600281111561019b577f4e487b7100000000000000000000000000000000000000000000000000000000600052602160045260246000fd5b6001600084815260200190815260200160002060020160149054906101000a900460ff1660028111156101f7577f4e487b7100000000000000000000000000000000000000000000000000000000600052602160045260246000fd5b1461020157600080fd5b60006001600086815260200190815260200160002060405180610160016040529081600082015481526020016001820160009054906101000a900473ffffffffffffffffffffffffffffffffffffffff1673ffffffffffffffffffffffffffffffffffffffff1673ffffffffffffffffffffffffffffffffffffffff1681526020016002820160009054906101000a900473ffffffffffffffffffffffffffffffffffffffff1673ffffffffffffffffffffffffffffffffffffffff1673ffffffffffffffffffffffffffffffffffffffff1681526020016002820160149054906101000a900460ff166002811115610323577f4e487b7100000000000000000000000000000000000000000000000000000000600052602160045260246000fd5b600281111561035b577f4e487b7100000000000000000000000000000000000000000000000000000000600052602160045260246000fd5b815260200160038201548152602001600482015481526020016005820160009054906101000a900460ff1660018111156103be577f4e487b7100000000000000000000000000000000000000000000000000000000600052602160045260246000fd5b60018111156103f6577f4e487b7100000000000000000000000000000000000000000000000000000000600052602160045260246000fd5b81526020016006820160405180606001604052908160008201548152602001600182015481526020016002820160009054906101000a900460ff16151515158152505081526020016009820160405180606001604052908160008201548152602001600182015481526020016002820160009054906101000a900460ff1615151515815250508152602001600c820160009054906101000a900473ffffffffffffffffffffffffffffffffffffffff1673ffffffffffffffffffffffffffffffffffffffff1673ffffffffffffffffffffffffffffffffffffffff168152602001600d82015481525050905080608001518160e00151602001511115801561050a5750806080015181610100015160200151115b8061053d575080608001518160e00151602001511115801561053c5750806101000151602001518160e0015160200151115b5b1561054f5780602001519350506105c3565b80608001518161010001516020015111158015610577575080608001518160e0015160200151115b806105ab5750806080015181610100015160200151111580156105aa5750806101000151602001518160e0015160200151105b5b156105bd5780604001519350506105c3565b60009350505b5050919050565b60016020528060005260406000206000915090508060000154908060010160009054906101000a900473ffffffffffffffffffffffffffffffffffffffff16908060020160009054906101000a900473ffffffffffffffffffffffffffffffffffffffff16908060020160149054906101000a900460ff16908060030154908060040154908060050160009054906101000a900460ff16908060060160405180606001604052908160008201548152602001600182015481526020016002820160009054906101000a900460ff161515151581525050908060090160405180606001604052908160008201548152602001600182015481526020016002820160009054906101000a900460ff1615151515815250509080600c0160009054906101000a900473ffffffffffffffffffffffffffffffffffffffff169080600d015490508b565b81600180600281111561074c577f4e487b7100000000000000000000000000000000000000000000000000000000600052602160045260246000fd5b6001600084815260200190815260200160002060020160149054906101000a900460ff1660028111156107a8577f4e487b7100000000000000000000000000000000000000000000000000000000600052602160045260246000fd5b146107b257600080fd5b833360006001600084815260200190815260200160002060405180610160016040529081600082015481526020016001820160009054906101000a900473ffffffffffffffffffffffffffffffffffffffff1673ffffffffffffffffffffffffffffffffffffffff1673ffffffffffffffffffffffffffffffffffffffff1681526020016002820160009054906101000a900473ffffffffffffffffffffffffffffffffffffffff1673ffffffffffffffffffffffffffffffffffffffff1673ffffffffffffffffffffffffffffffffffffffff1681526020016002820160149054906101000a900460ff1660028111156108d6577f4e487b7100000000000000000000000000000000000000000000000000000000600052602160045260246000fd5b600281111561090e577f4e487b7100000000000000000000000000000000000000000000000000000000600052602160045260246000fd5b815260200160038201548152602001600482015481526020016005820160009054906101000a900460ff166001811115610971577f4e487b7100000000000000000000000000000000000000000000000000000000600052602160045260246000fd5b60018111156109a9577f4e487b7100000000000000000000000000000000000000000000000000000000600052602160045260246000fd5b81526020016006820160405180606001604052908160008201548152602001600182015481526020016002820160009054906101000a900460ff16151515158152505081526020016009820160405180606001604052908160008201548152602001600182015481526020016002820160009054906101000a900460ff1615151515815250508152602001600c820160009054906101000a900473ffffffffffffffffffffffffffffffffffffffff1673ffffffffffffffffffffffffffffffffffffffff1673ffffffffffffffffffffffffffffffffffffffff168152602001600d8201548152505090506000816020015173ffffffffffffffffffffffffffffffffffffffff168373ffffffffffffffffffffffffffffffffffffffff161415610b67578160c001516001811115610b0c577f4e487b7100000000000000000000000000000000000000000000000000000000600052602160045260246000fd5b60006001811115610b46577f4e487b7100000000000000000000000000000000000000000000000000000000600052602160045260246000fd5b148015610b5957508160e0015160400151155b610b6257600080fd5b610c3d565b816040015173ffffffffffffffffffffffffffffffffffffffff168373ffffffffffffffffffffffffffffffffffffffff161415610c37578160c001516001811115610bdc577f4e487b7100000000000000000000000000000000000000000000000000000000600052602160045260246000fd5b600180811115610c15577f4e487b7100000000000000000000000000000000000000000000000000000000600052602160045260246000fd5b148015610c29575081610100015160400151155b610c3257600080fd5b610c3c565b600080fd5b5b6000610c47611da2565b90506000600160008b815260200190815260200160002090508060010160009054906101000a900473ffffffffffffffffffffffffffffffffffffffff1673ffffffffffffffffffffffffffffffffffffffff163373ffffffffffffffffffffffffffffffffffffffff161415610dbf578815610cdd5781816006016001016000828254610cd591906123f6565b925050819055505b806006016000016000815480929190610cf590612538565b9190505550881580610d11575080600301548160060160010154115b80610d2757508060040154816006016000015410155b15610d4d5760018160060160020160006101000a81548160ff0219169083151502179055505b8060090160020160009054906101000a900460ff16610dba5760018160050160006101000a81548160ff02191690836001811115610db4577f4e487b7100000000000000000000000000000000000000000000000000000000600052602160045260246000fd5b02179055505b610f1b565b8060020160009054906101000a900473ffffffffffffffffffffffffffffffffffffffff1673ffffffffffffffffffffffffffffffffffffffff163373ffffffffffffffffffffffffffffffffffffffff161415610f1a578815610e3c5781816009016001016000828254610e3491906123f6565b925050819055505b806009016000016000815480929190610e5490612538565b9190505550881580610e70575080600301548160090160010154115b80610e8657508060040154816009016000015410155b15610eac5760018160090160020160006101000a81548160ff0219169083151502179055505b8060060160020160009054906101000a900460ff16610f195760008160050160006101000a81548160ff02191690836001811115610f13577f4e487b7100000000000000000000000000000000000000000000000000000000600052602160045260246000fd5b02179055505b5b5b8060060160020160009054906101000a900460ff168015610f4d57508060090160020160009054906101000a900460ff165b156112025760028160020160146101000a81548160ff02191690836002811115610fa0577f4e487b7100000000000000000000000000000000000000000000000000000000600052602160045260246000fd5b0217905550610fae8a61015d565b81600c0160006101000a81548173ffffffffffffffffffffffffffffffffffffffff021916908373ffffffffffffffffffffffffffffffffffffffff160217905550600073ffffffffffffffffffffffffffffffffffffffff1681600c0160009054906101000a900473ffffffffffffffffffffffffffffffffffffffff1673ffffffffffffffffffffffffffffffffffffffff16141561112c578060010160009054906101000a900473ffffffffffffffffffffffffffffffffffffffff1673ffffffffffffffffffffffffffffffffffffffff166108fc82600d01549081150290604051600060405180830381858888f193505050501580156110b7573d6000803e3d6000fd5b508060020160009054906101000a900473ffffffffffffffffffffffffffffffffffffffff1673ffffffffffffffffffffffffffffffffffffffff166108fc82600d01549081150290604051600060405180830381858888f19350505050158015611126573d6000803e3d6000fd5b50611184565b3373ffffffffffffffffffffffffffffffffffffffff166108fc600283600d0154611157919061244c565b9081150290604051600060405180830381858888f19350505050158015611182573d6000803e3d6000fd5b505b6002808111156111bd577f4e487b7100000000000000000000000000000000000000000000000000000000600052602160045260246000fd5b8a3373ffffffffffffffffffffffffffffffffffffffff167f547e2e1ba13d6a72dfe27bd9814ab46412060b71fa2069142b1c7cff5d96b01a60405160405180910390a45b50505050505050505050565b6000341161121b57600080fd5b60405180610160016040528060005481526020013373ffffffffffffffffffffffffffffffffffffffff1681526020018473ffffffffffffffffffffffffffffffffffffffff168152602001600060028111156112a1577f4e487b7100000000000000000000000000000000000000000000000000000000600052602160045260246000fd5b81526020018381526020018281526020016001808111156112eb577f4e487b7100000000000000000000000000000000000000000000000000000000600052602160045260246000fd5b81526020016040518060600160405280600081526020016000815260200160001515815250815260200160405180606001604052806000815260200160008152602001600015158152508152602001600073ffffffffffffffffffffffffffffffffffffffff1681526020013481525060016000805481526020019081526020016000206000820151816000015560208201518160010160006101000a81548173ffffffffffffffffffffffffffffffffffffffff021916908373ffffffffffffffffffffffffffffffffffffffff16021790555060408201518160020160006101000a81548173ffffffffffffffffffffffffffffffffffffffff021916908373ffffffffffffffffffffffffffffffffffffffff16021790555060608201518160020160146101000a81548160ff02191690836002811115611458577f4e487b7100000000000000000000000000000000000000000000000000000000600052602160045260246000fd5b02179055506080820151816003015560a0820151816004015560c08201518160050160006101000a81548160ff021916908360018111156114c2577f4e487b7100000000000000000000000000000000000000000000000000000000600052602160045260246000fd5b021790555060e082015181600601600082015181600001556020820151816001015560408201518160020160006101000a81548160ff021916908315150217905550505061010082015181600901600082015181600001556020820151816001015560408201518160020160006101000a81548160ff021916908315150217905550505061012082015181600c0160006101000a81548173ffffffffffffffffffffffffffffffffffffffff021916908373ffffffffffffffffffffffffffffffffffffffff16021790555061014082015181600d0155905050600060028111156115d6577f4e487b7100000000000000000000000000000000000000000000000000000000600052602160045260246000fd5b6000543373ffffffffffffffffffffffffffffffffffffffff167f547e2e1ba13d6a72dfe27bd9814ab46412060b71fa2069142b1c7cff5d96b01a60405160405180910390a460008081548092919061162e90612538565b9190505550505050565b806000806002811115611674577f4e487b7100000000000000000000000000000000000000000000000000000000600052602160045260246000fd5b6001600084815260200190815260200160002060020160149054906101000a900460ff1660028111156116d0577f4e487b7100000000000000000000000000000000000000000000000000000000600052602160045260246000fd5b146116da57600080fd5b600060016000858152602001908152602001600020905080600d0154341461170157600080fd5b60018160020160146101000a81548160ff0219169083600281111561174f577f4e487b7100000000000000000000000000000000000000000000000000000000600052602160045260246000fd5b02179055506001600281111561178e577f4e487b7100000000000000000000000000000000000000000000000000000000600052602160045260246000fd5b843373ffffffffffffffffffffffffffffffffffffffff167f547e2e1ba13d6a72dfe27bd9814ab46412060b71fa2069142b1c7cff5d96b01a60405160405180910390a450505050565b606060008054905060008060005b838110156118e7573373ffffffffffffffffffffffffffffffffffffffff166001600083815260200190815260200160002060010160009054906101000a900473ffffffffffffffffffffffffffffffffffffffff1673ffffffffffffffffffffffffffffffffffffffff1614806118bf57503373ffffffffffffffffffffffffffffffffffffffff166001600083815260200190815260200160002060020160009054906101000a900473ffffffffffffffffffffffffffffffffffffffff1673ffffffffffffffffffffffffffffffffffffffff16145b156118d4576001836118d191906123f6565b92505b80806118df90612538565b9150506117e6565b5060008267ffffffffffffffff81111561192a577f4e487b7100000000000000000000000000000000000000000000000000000000600052604160045260246000fd5b60405190808252806020026020018201604052801561196357816020015b611950611df0565b8152602001906001900390816119485790505b50905060005b84811015611d97573373ffffffffffffffffffffffffffffffffffffffff166001600083815260200190815260200160002060010160009054906101000a900473ffffffffffffffffffffffffffffffffffffffff1673ffffffffffffffffffffffffffffffffffffffff161480611a4257503373ffffffffffffffffffffffffffffffffffffffff166001600083815260200190815260200160002060020160009054906101000a900473ffffffffffffffffffffffffffffffffffffffff1673ffffffffffffffffffffffffffffffffffffffff16145b15611d8457600081905060006001600083815260200190815260200160002090508060405180610160016040529081600082015481526020016001820160009054906101000a900473ffffffffffffffffffffffffffffffffffffffff1673ffffffffffffffffffffffffffffffffffffffff1673ffffffffffffffffffffffffffffffffffffffff1681526020016002820160009054906101000a900473ffffffffffffffffffffffffffffffffffffffff1673ffffffffffffffffffffffffffffffffffffffff1673ffffffffffffffffffffffffffffffffffffffff1681526020016002820160149054906101000a900460ff166002811115611b71577f4e487b7100000000000000000000000000000000000000000000000000000000600052602160045260246000fd5b6002811115611ba9577f4e487b7100000000000000000000000000000000000000000000000000000000600052602160045260246000fd5b815260200160038201548152602001600482015481526020016005820160009054906101000a900460ff166001811115611c0c577f4e487b7100000000000000000000000000000000000000000000000000000000600052602160045260246000fd5b6001811115611c44577f4e487b7100000000000000000000000000000000000000000000000000000000600052602160045260246000fd5b81526020016006820160405180606001604052908160008201548152602001600182015481526020016002820160009054906101000a900460ff16151515158152505081526020016009820160405180606001604052908160008201548152602001600182015481526020016002820160009054906101000a900460ff1615151515815250508152602001600c820160009054906101000a900473ffffffffffffffffffffffffffffffffffffffff1673ffffffffffffffffffffffffffffffffffffffff1673ffffffffffffffffffffffffffffffffffffffff168152602001600d82015481525050848681518110611d67577f4e487b7100000000000000000000000000000000000000000000000000000000600052603260045260246000fd5b6020026020010181905250600185611d7f91906123f6565b945050505b8080611d8f90612538565b915050611969565b508094505050505090565b60006001600644426006604051602001611dbe93929190612298565b6040516020818303038152906040528051906020012060001c611de1919061258b565b611deb91906123f6565b905090565b60405180610160016040528060008152602001600073ffffffffffffffffffffffffffffffffffffffff168152602001600073ffffffffffffffffffffffffffffffffffffffff16815260200160006002811115611e77577f4e487b7100000000000000000000000000000000000000000000000000000000600052602160045260246000fd5b8152602001600081526020016000815260200160006001811115611ec4577f4e487b7100000000000000000000000000000000000000000000000000000000600052602160045260246000fd5b8152602001611ed1611f08565b8152602001611ede611f08565b8152602001600073ffffffffffffffffffffffffffffffffffffffff168152602001600081525090565b604051806060016040528060008152602001600081526020016000151581525090565b600081359050611f3a81612671565b92915050565b600081359050611f4f81612688565b92915050565b600081359050611f648161269f565b92915050565b600080600060608486031215611f7f57600080fd5b6000611f8d86828701611f2b565b9350506020611f9e86828701611f55565b9250506040611faf86828701611f55565b9150509250925092565b600060208284031215611fcb57600080fd5b6000611fd984828501611f55565b91505092915050565b60008060408385031215611ff557600080fd5b600061200385828601611f55565b925050602061201485828601611f40565b9150509250929050565b600061202a83836120fe565b6101e08301905092915050565b612040816124a6565b82525050565b61204f816124a6565b82525050565b6000612060826123cd565b61206a81856123e5565b9350612075836123bd565b8060005b838110156120a657815161208d888261201e565b9750612098836123d8565b925050600181019050612079565b5085935050505092915050565b6120bc816124b8565b82525050565b6120cb81612514565b82525050565b6120da81612514565b82525050565b6120e981612526565b82525050565b6120f881612526565b82525050565b6101e0820160008201516121156000850182612263565b5060208201516121286020850182612037565b50604082015161213b6040850182612037565b50606082015161214e60608501826120e0565b5060808201516121616080850182612263565b5060a082015161217460a0850182612263565b5060c082015161218760c08501826120c2565b5060e082015161219a60e08501826121df565b506101008201516121af6101408501826121df565b506101208201516121c46101a0850182612037565b506101408201516121d96101c0850182612263565b50505050565b6060820160008201516121f56000850182612263565b5060208201516122086020850182612263565b50604082015161221b60408501826120b3565b50505050565b6060820160008201516122376000850182612263565b50602082015161224a6020850182612263565b50604082015161225d60408501826120b3565b50505050565b61226c8161250a565b82525050565b61227b8161250a565b82525050565b61229261228d8261250a565b612581565b82525050565b60006122a48286612281565b6020820191506122b48285612281565b6020820191506122c48284612281565b602082019150819050949350505050565b60006020820190506122ea6000830184612046565b92915050565b6000602082019050818103600083015261230a8184612055565b905092915050565b60006101e082019050612328600083018e612272565b612335602083018d612046565b612342604083018c612046565b61234f606083018b6120ef565b61235c608083018a612272565b61236960a0830189612272565b61237660c08301886120d1565b61238360e0830187612221565b612391610140830186612221565b61239f6101a0830185612046565b6123ad6101c0830184612272565b9c9b505050505050505050505050565b6000819050602082019050919050565b600081519050919050565b6000602082019050919050565b600082825260208201905092915050565b60006124018261250a565b915061240c8361250a565b9250827fffffffffffffffffffffffffffffffffffffffffffffffffffffffffffffffff03821115612441576124406125bc565b5b828201905092915050565b60006124578261250a565b91506124628361250a565b9250817fffffffffffffffffffffffffffffffffffffffffffffffffffffffffffffffff048311821515161561249b5761249a6125bc565b5b828202905092915050565b60006124b1826124ea565b9050919050565b60008115159050919050565b60008190506124d282612649565b919050565b60008190506124e58261265d565b919050565b600073ffffffffffffffffffffffffffffffffffffffff82169050919050565b6000819050919050565b600061251f826124c4565b9050919050565b6000612531826124d7565b9050919050565b60006125438261250a565b91507fffffffffffffffffffffffffffffffffffffffffffffffffffffffffffffffff821415612576576125756125bc565b5b600182019050919050565b6000819050919050565b60006125968261250a565b91506125a18361250a565b9250826125b1576125b06125eb565b5b828206905092915050565b7f4e487b7100000000000000000000000000000000000000000000000000000000600052601160045260246000fd5b7f4e487b7100000000000000000000000000000000000000000000000000000000600052601260045260246000fd5b7f4e487b7100000000000000000000000000000000000000000000000000000000600052602160045260246000fd5b6002811061265a5761265961261a565b5b50565b6003811061266e5761266d61261a565b5b50565b61267a816124a6565b811461268557600080fd5b50565b612691816124b8565b811461269c57600080fd5b50565b6126a88161250a565b81146126b357600080fd5b5056fea26469706673582212203692615a44cc62e49ebe88aced057d273506fccad7a34197e2a800ed4e7e1a5a64736f6c63430008040033",
  "linkReferences": {},
  "deployedLinkReferences": {}
}